{
    "contractName": "Voting",
    "abi": [
        {
            "constant": false,
            "inputs": [
                {
                    "name": "_voterHash",
                    "type": "string"
                }
            ],
            "name": "addVoter",
            "outputs": [
                {
                    "name": "",
                    "type": "bool"
                }
            ],
            "payable": false,
            "stateMutability": "nonpayable",
            "type": "function"
        },
        {
            "constant": false,
            "inputs": [
                {
                    "name": "_candidateHash",
                    "type": "string"
                }
            ],
            "name": "addCandidate",
            "outputs": [
                {
                    "name": "",
                    "type": "bool"
                }
            ],
            "payable": false,
            "stateMutability": "nonpayable",
            "type": "function"
        },
        {
            "constant": false,
            "inputs": [
                {
                    "name": "_candidateHash",
                    "type": "string"
                },
                {
                    "name": "_voterHash",
                    "type": "string"
                }
            ],
            "name": "vote",
            "outputs": [
                {
                    "name": "",
                    "type": "bool"
                }
            ],
            "payable": false,
            "stateMutability": "nonpayable",
            "type": "function"
        },
        {
            "constant": false,
            "inputs": [],
            "name": "reset",
            "outputs": [],
            "payable": false,
            "stateMutability": "nonpayable",
            "type": "function"
        },
        {
            "constant": true,
            "inputs": [
                {
                    "name": "_candidateHash",
                    "type": "string"
                }
            ],
            "name": "getVoteCount",
            "outputs": [
                {
                    "name": "",
                    "type": "uint256"
                }
            ],
            "payable": false,
            "stateMutability": "view",
            "type": "function"
        }
    ],
    "bytecode": "0x608060405234801561001057600080fd5b506109d0806100206000396000f3fe608060405234801561001057600080fd5b50600436106100575760003560e01c8063069953a71461005c578063462e91ec1461012b578063aca84892146101fe578063d826f88f146102d1578063e8d5940d146102db575b600080fd5b6101156004803603602081101561007257600080fd5b810190808035906020019064010000000081111561008f57600080fd5b8201836020820111156100a157600080fd5b803590602001918460018302840111640100000000831117156100c357600080fd5b91908080601f016020809104026020016040519081016040528093929190818152602001838380828437600081840152601f19601f820116905080830192505050505050509192919290505050610445565b6040518082815260200191505060405180910390f35b6101e46004803603602081101561014157600080fd5b810190808035906020019064010000000081111561015e57600080fd5b82018360208201111561017057600080fd5b8035906020019184600183028401116401000000008311171561019257600080fd5b91908080601f016020809104026020016040519081016040528093929190818152602001838380828437600081840152601f19601f8201169050808301925050505050505091929192905050506104b8565b604051808215151515815260200191505060405180910390f35b6102b76004803603602081101561021457600080fd5b810190808035906020019064010000000081111561023157600080fd5b82018360208201111561024357600080fd5b8035906020019184600183028401116401000000008311171561026557600080fd5b91908080601f016020809104026020016040519081016040528093929190818152602001838380828437600081840152601f19601f820116905080830192505050505050509192919290505050610571565b604051808215151515815260200191505060405180910390f35b6102d9610629565b005b61042b600480360360408110156102f157600080fd5b810190808035906020019064010000000081111561030e57600080fd5b82018360208201111561032057600080fd5b8035906020019184600183028401116401000000008311171561034257600080fd5b91908080601f016020809104026020016040519081016040528093929190818152602001838380828437600081840152601f19601f820116905080830192505050505050509192919290803590602001906401000000008111156103a557600080fd5b8201836020820111156103b757600080fd5b803590602001918460018302840111640100000000831117156103d957600080fd5b91908080601f016020809104026020016040519081016040528093929190818152602001838380828437600081840152601f19601f820116905080830192505050505050509192919290505050610787565b604051808215151515815260200191505060405180910390f35b60006002826040518082805190602001908083835b6020831061047d578051825260208201915060208101905060208303925061045a565b6001836020036101000a0380198251168184511680821785525050505050509050019150509081526020016040518091039020549050919050565b600060018290806001815401808255809150509060018203906000526020600020016000909192909190915090805190602001906104f79291906108ff565b505060006002836040518082805190602001908083835b60208310610531578051825260208201915060208101905060208303925061050e565b6001836020036101000a03801982511681845116808217855250505050505090500191505090815260200160405180910390208190555060019050919050565b6000808290806001815401808255809150509060018203906000526020600020016000909192909190915090805190602001906105af9291906108ff565b505060006003836040518082805190602001908083835b602083106105e957805182526020820191506020810190506020830392506105c6565b6001836020036101000a03801982511681845116808217855250505050505090500191505090815260200160405180910390208190555060019050919050565b60008090505b6000805490508110156106d657600060036000838154811061064d57fe5b9060005260206000200160405180828054600181600116156101000203166002900480156106b25780601f106106905761010080835404028352918201916106b2565b820191906000526020600020905b81548152906001019060200180831161069e575b5050915050908152602001604051809103902081905550808060010191505061062f565b5060008090505b6001805490508110156107845760006002600183815481106106fb57fe5b9060005260206000200160405180828054600181600116156101000203166002900480156107605780601f1061073e576101008083540402835291820191610760565b820191906000526020600020905b81548152906001019060200180831161074c575b505091505090815260200160405180910390208190555080806001019150506106dd565b50565b6000806003836040518082805190602001908083835b602083106107c0578051825260208201915060208101905060208303925061079d565b6001836020036101000a0380198251168184511680821785525050505050509050019150509081526020016040518091039020541461080257600090506108f9565b6003826040518082805190602001908083835b602083106108385780518252602082019150602081019050602083039250610815565b6001836020036101000a0380198251168184511680821785525050505050509050019150509081526020016040518091039020600081548092919060010191905055506002836040518082805190602001908083835b602083106108b1578051825260208201915060208101905060208303925061088e565b6001836020036101000a038019825116818451168082178552505050505050905001915050908152602001604051809103902060008154809291906001019190505550600190505b92915050565b828054600181600116156101000203166002900490600052602060002090601f016020900481019282601f1061094057805160ff191683800117855561096e565b8280016001018555821561096e579182015b8281111561096d578251825591602001919060010190610952565b5b50905061097b919061097f565b5090565b6109a191905b8082111561099d576000816000905550600101610985565b5090565b9056fea165627a7a723058202d3cf907b64c747aa40b004781aaeab1b581f56a5b0b0527d6dc33f252b1c3410029",
    "source": "pragma solidity >=0.4.21 <0.6.0;\n\ncontract Voting {\n\n    string[] voterHash;\n    string[] candidateHash;\n    mapping (string => uint) candidateVoteCount;\n    mapping (string => uint) voterVoteCount;\n\n    function addVoter(string memory _voterHash) public returns (bool){\n        voterHash.push(_voterHash);\n        voterVoteCount[_voterHash] = 0;\n        return true;\n    }\n\n    function addCandidate(string memory _candidateHash) public returns (bool) {\n        candidateHash.push(_candidateHash);\n        candidateVoteCount[_candidateHash] = 0;\n        return true;\n    }\n\n    function vote(string memory _candidateHash, string memory _voterHash) public returns (bool) {\n\n        if(voterVoteCount[_voterHash] != 0)\n            return false;\n        else{\n            voterVoteCount[_voterHash]++;\n            candidateVoteCount[_candidateHash]++;\n            return true;\n        }\n    }\n\n    function reset() public\n    {\n        for(uint i=0;i<voterHash.length; i++)\n        {\n            voterVoteCount[voterHash[i]] = 0;\n        }\n\n        for(uint i=0;i<candidateHash.length; i++)\n        {\n            candidateVoteCount[candidateHash[i]] = 0;\n        }\n    }\n\n    function getVoteCount(string memory _candidateHash) public view returns (uint) {\n        return candidateVoteCount[_candidateHash];\n    }\n}",
    "sourcePath": "/home/manan/codefundo/codefundo/blockchain/contracts/Voting.sol",
    "compiler": {
        "name": "solc",
        "version": "0.5.8+commit.23d335f2.Emscripten.clang"
    },
    "schemaVersion": "3.0.11",
    "updatedAt": "2019-08-15T09:38:55.059Z",
    "devdoc": {
        "methods": {}
    },
    "userdoc": {
        "methods": {}
    }
}