{
  "contractName": "Voting",
  "abi": [
    {
      "constant": false,
      "inputs": [
        {
          "name": "_voterHash",
          "type": "string"
        }
      ],
      "name": "addVoter",
      "outputs": [
        {
          "name": "",
          "type": "bool"
        }
      ],
      "payable": false,
      "stateMutability": "nonpayable",
      "type": "function",
      "signature": "0xaca84892"
    },
    {
      "constant": false,
      "inputs": [
        {
          "name": "_candidateHash",
          "type": "string"
        }
      ],
      "name": "addCandidate",
      "outputs": [
        {
          "name": "",
          "type": "bool"
        }
      ],
      "payable": false,
      "stateMutability": "nonpayable",
      "type": "function",
      "signature": "0x462e91ec"
    },
    {
      "constant": true,
      "inputs": [],
      "name": "getVoters",
      "outputs": [
        {
          "name": "",
          "type": "string[]"
        }
      ],
      "payable": false,
      "stateMutability": "view",
      "type": "function",
      "signature": "0xcdd72253"
    },
    {
      "constant": true,
      "inputs": [],
      "name": "getCandidates",
      "outputs": [
        {
          "name": "",
          "type": "string[]"
        }
      ],
      "payable": false,
      "stateMutability": "view",
      "type": "function",
      "signature": "0x06a49fce"
    },
    {
      "constant": false,
      "inputs": [
        {
          "name": "_candidateHash",
          "type": "string"
        },
        {
          "name": "_voterHash",
          "type": "string"
        }
      ],
      "name": "vote",
      "outputs": [
        {
          "name": "",
          "type": "bool"
        }
      ],
      "payable": false,
      "stateMutability": "nonpayable",
      "type": "function",
      "signature": "0xe8d5940d"
    },
    {
      "constant": false,
      "inputs": [],
      "name": "reset",
      "outputs": [],
      "payable": false,
      "stateMutability": "nonpayable",
      "type": "function",
      "signature": "0xd826f88f"
    },
    {
      "constant": true,
      "inputs": [
        {
          "name": "_candidateHash",
          "type": "string"
        }
      ],
      "name": "getVoteCount",
      "outputs": [
        {
          "name": "",
          "type": "uint256"
        }
      ],
      "payable": false,
      "stateMutability": "view",
      "type": "function",
      "signature": "0x069953a7"
    }
  ],
  "bytecode": "0x608060405234801561001057600080fd5b50610c75806100206000396000f3fe608060405260043610610083576000357c0100000000000000000000000000000000000000000000000000000000900463ffffffff168063069953a71461008857806306a49fce146100c5578063462e91ec146100f0578063aca848921461012d578063cdd722531461016a578063d826f88f14610195578063e8d5940d146101ac575b600080fd5b34801561009457600080fd5b506100af60048036036100aa9190810190610982565b6101e9565b6040516100bc9190610b2e565b60405180910390f35b3480156100d157600080fd5b506100da61025e565b6040516100e79190610af1565b60405180910390f35b3480156100fc57600080fd5b5061011760048036036101129190810190610982565b610347565b6040516101249190610b13565b60405180910390f35b34801561013957600080fd5b50610154600480360361014f9190810190610982565b610402565b6040516101619190610b13565b60405180910390f35b34801561017657600080fd5b5061017f6104bc565b60405161018c9190610af1565b60405180910390f35b3480156101a157600080fd5b506101aa6105a5565b005b3480156101b857600080fd5b506101d360048036036101ce91908101906109c3565b610707565b6040516101e09190610b13565b60405180910390f35b60006002826040518082805190602001908083835b60208310151561022357805182526020820191506020810190506020830392506101fe565b6001836020036101000a0380198251168184511680821785525050505050509050019150509081526020016040518091039020549050919050565b60606001805480602002602001604051908101604052809291908181526020016000905b8282101561033e578382906000526020600020018054600181600116156101000203166002900480601f01602080910402602001604051908101604052809291908181526020018280546001816001161561010002031660029004801561032a5780601f106102ff5761010080835404028352916020019161032a565b820191906000526020600020905b81548152906001019060200180831161030d57829003601f168201915b505050505081526020019060010190610282565b50505050905090565b60006001829080600181540180825580915050906001820390600052602060002001600090919290919091509080519060200190610386929190610887565b505060006002836040518082805190602001908083835b6020831015156103c2578051825260208201915060208101905060208303925061039d565b6001836020036101000a03801982511681845116808217855250505050505090500191505090815260200160405180910390208190555060019050919050565b600080829080600181540180825580915050906001820390600052602060002001600090919290919091509080519060200190610440929190610887565b505060006003836040518082805190602001908083835b60208310151561047c5780518252602082019150602081019050602083039250610457565b6001836020036101000a03801982511681845116808217855250505050505090500191505090815260200160405180910390208190555060019050919050565b60606000805480602002602001604051908101604052809291908181526020016000905b8282101561059c578382906000526020600020018054600181600116156101000203166002900480601f0160208091040260200160405190810160405280929190818152602001828054600181600116156101000203166002900480156105885780601f1061055d57610100808354040283529160200191610588565b820191906000526020600020905b81548152906001019060200180831161056b57829003601f168201915b5050505050815260200190600101906104e0565b50505050905090565b60008090505b60008054905081101561065457600060036000838154811015156105cb57fe5b9060005260206000200160405180828054600181600116156101000203166002900480156106305780601f1061060e576101008083540402835291820191610630565b820191906000526020600020905b81548152906001019060200180831161061c575b505091505090815260200160405180910390208190555080806001019150506105ab565b5060008090505b600180549050811015610704576000600260018381548110151561067b57fe5b9060005260206000200160405180828054600181600116156101000203166002900480156106e05780601f106106be5761010080835404028352918201916106e0565b820191906000526020600020905b8154815290600101906020018083116106cc575b5050915050908152602001604051809103902081905550808060010191505061065b565b50565b6000806003836040518082805190602001908083835b602083101515610742578051825260208201915060208101905060208303925061071d565b6001836020036101000a0380198251168184511680821785525050505050509050019150509081526020016040518091039020541415156107865760009050610881565b6003826040518082805190602001908083835b6020831015156107be5780518252602082019150602081019050602083039250610799565b6001836020036101000a0380198251168184511680821785525050505050509050019150509081526020016040518091039020600081548092919060010191905055506002836040518082805190602001908083835b6020831015156108395780518252602082019150602081019050602083039250610814565b6001836020036101000a038019825116818451168082178552505050505050905001915050908152602001604051809103902060008154809291906001019190505550600190505b92915050565b828054600181600116156101000203166002900490600052602060002090601f016020900481019282601f106108c857805160ff19168380011785556108f6565b828001600101855582156108f6579182015b828111156108f55782518255916020019190600101906108da565b5b5090506109039190610907565b5090565b61092991905b8082111561092557600081600090555060010161090d565b5090565b90565b600082601f830112151561093f57600080fd5b813561095261094d82610b76565b610b49565b9150808252602083016020830185838301111561096e57600080fd5b610979838284610be8565b50505092915050565b60006020828403121561099457600080fd5b600082013567ffffffffffffffff8111156109ae57600080fd5b6109ba8482850161092c565b91505092915050565b600080604083850312156109d657600080fd5b600083013567ffffffffffffffff8111156109f057600080fd5b6109fc8582860161092c565b925050602083013567ffffffffffffffff811115610a1957600080fd5b610a258582860161092c565b9150509250929050565b6000610a3a82610baf565b80845260208401935083602082028501610a5385610ba2565b60005b84811015610a8c578383038852610a6e838351610aac565b9250610a7982610bc5565b9150602088019750600181019050610a56565b508196508694505050505092915050565b610aa681610bd2565b82525050565b6000610ab782610bba565b808452610acb816020860160208601610bf7565b610ad481610c2a565b602085010191505092915050565b610aeb81610bde565b82525050565b60006020820190508181036000830152610b0b8184610a2f565b905092915050565b6000602082019050610b286000830184610a9d565b92915050565b6000602082019050610b436000830184610ae2565b92915050565b6000604051905081810181811067ffffffffffffffff82111715610b6c57600080fd5b8060405250919050565b600067ffffffffffffffff821115610b8d57600080fd5b601f19601f8301169050602081019050919050565b6000602082019050919050565b600081519050919050565b600081519050919050565b6000602082019050919050565b60008115159050919050565b6000819050919050565b82818337600083830152505050565b60005b83811015610c15578082015181840152602081019050610bfa565b83811115610c24576000848401525b50505050565b6000601f19601f830116905091905056fea265627a7a72305820cdfee167843dc9f46c709c5bd21bc793b757e7d92192b81b54c5305cf5fdbff46c6578706572696d656e74616cf50037",
  "source": "// pragma solidity >=0.4.21 <0.6.0;\npragma experimental ABIEncoderV2;\n\ncontract Voting {\n\n    string[] voterHash;\n    string[] candidateHash;\n    mapping (string => uint) candidateVoteCount;\n    mapping (string => uint) voterVoteCount;\n\n    function addVoter(string memory _voterHash) public returns (bool){\n        voterHash.push(_voterHash);\n        voterVoteCount[_voterHash] = 0;\n        return true;\n    }\n\n    function addCandidate(string memory _candidateHash) public returns (bool) {\n        candidateHash.push(_candidateHash);\n        candidateVoteCount[_candidateHash] = 0;\n        return true;\n    }\n\n    function getVoters() public view returns (string[] memory) {\n        return voterHash;\n    }\n\n    function getCandidates() public view returns (string[] memory) {\n        return candidateHash;\n    }\n\n    function vote(string memory _candidateHash, string memory _voterHash) public returns (bool) {\n\n        if(voterVoteCount[_voterHash] != 0)\n            return false;\n        else{\n            voterVoteCount[_voterHash]++;\n            candidateVoteCount[_candidateHash]++;\n            return true;\n        }\n    }\n\n    function reset() public\n    {\n        for(uint i=0;i<voterHash.length; i++)\n        {\n            voterVoteCount[voterHash[i]] = 0;\n        }\n\n        for(uint i=0;i<candidateHash.length; i++)\n        {\n            candidateVoteCount[candidateHash[i]] = 0;\n        }\n    }\n\n    function getVoteCount(string memory _candidateHash) public view returns (uint) {\n        return candidateVoteCount[_candidateHash];\n    }\n}",
  "sourcePath": "/home/njnisarg/codefundo2k19/blockchain/contracts/Voting.sol",
  "compiler": {
    "name": "solc",
    "version": "0.5.0+commit.1d4f565a.Emscripten.clang"
  },
  "schemaVersion": "3.0.2",
  "updatedAt": "2019-08-16T22:27:36.001Z",
  "devdoc": {
    "methods": {}
  },
  "userdoc": {
    "methods": {}
  }
}